:060000000A128A110C280F
:10000800FE00030EF2000A08F3000A128A11772C88
:100018000A128A110F280A128A119B240A128A11BD
:10002800B3000A128A119C240A128A11B4000A1217
:100038008A119D240A128A11B5000A128A119E2477
:100048000A128A11B6000A128A119F240A128A110A
:10005800B7000A128A11A0240A128A11B800AD0149
:10006800AE01AF01B001B101B20183010A128A11D8
:100078003D2883160317880189018316031381130A
:10008800FF30860087018312031386018701283019
:100098008400330883138000840A34088000840AAB
:1000A80035088000840A36088000840A37088000F2
:1000B8002030840028088000840A29088000840AE7
:1000C8002A088000840A2B088000840A2C088000F3
:1000D8000A128A1107220A128A1100300A128A119A
:1000E800A8230A128A1101300A128A11A8230A12B7
:1000F8008A11093083120313A00000300A128A11F2
:1001080050230A128A11013083120313A000013010
:100118000A128A1150230A128A118B170B168B1098
:1001280083160313011383123208380603199D2816
:100138009E28972800300A128A11A8230A128A11C9
:1001480001300A128A11A8230A128A1138290830A4
:100158000A128A11A8230A128A1100300A128A1177
:10016800A8230A128A111D3083120313A0000A1251
:100178008A114F240A128A110C300A128A11A823F4
:100188000A128A1100300A128A11A8230A128A1147
:10019800113083120313A0000A128A114F240A1285
:1001A8008A11452908300A128A11A8230A128A11CD
:1001B80000300A128A11A8230A128A1127308312E2
:1001C8000313A0000A128A114F240A128A110C3054
:1001D8000A128A11A8230A128A1100300A128A11F7
:1001E800A8230A128A11443083120313A0000A12AA
:1001F8008A114F240A128A1101300A128A11BE226A
:100208000A128A11452908300A128A11A8230A12EB
:100218008A1100300A128A11A8230A128A11313071
:1002280083120313A0000A128A114F240A128A119A
:100238000C300A128A11A8230A128A1100300A12F5
:100248008A11A8230A128A113B3083120313A000D3
:100258000A128A114F240A128A1100300A128A11CE
:10026800BE220A128A114529831203133208003A62
:100278000319AB28013A0319D628033A03190729A9
:100288004529831203133208B80097280A128A11E5
:100298000C28F600761C512952296729831203136A
:1002A8002D08840083172E1C83130130F4003008B6
:1002B8000739013E61290310F40DFF3E031D5F2934
:1002C800740880047C29831203132D088400831783
:1002D8002E1C83130130F40030080739013E7629BB
:1002E8000310F40DFF3E031D74297408FF3A8005BE
:1002F800F61C7F29802996292D08840083172E1C37
:1003080083130130F400300CF500F50C750C073937
:10031800013E90290310F40DFF3E031D8E29740839
:100328008004AC292D08840083172E1C8313013008
:10033800F400300CF500F50C750C0739013EA629C0
:100348000310F40DFF3E031DA4297408FF3A80052D
:10035800761DAF29B029C3292D08840083172E1CC8
:1003680083130130F40031080739013EBD29031019
:10037800F40DFF3E031DBB2974088004D6292D08FF
:10038800840083172E1C83130130F40031080739C9
:10039800013ED0290310F40DFF3E031DCE29740839
:1003A800FF3A8005F61DD929DA29F0292D0884009D
:1003B80083172E1C83130130F400310CF500F50C63
:1003C800750C0739013EEA290310F40DFF3E031DA1
:1003D800E82974088004062A2D08840083172E1C37
:1003E80083130130F400310CF500F50C750C073956
:1003F800013E002A0310F40DFF3E031DFE29740878
:10040800FF3A800508002D3084008312031320086A
:1004180083138000840A21088000840A220880004F
:10042800840A23088000840A2408800000302E06ED
:10043800031D202A05302D06031D232A242A282AD5
:10044800831603138501432A00302E06031D2E2A26
:1004580006302D06031D312A322A362A8316031345
:100468008601432A00302E06031D3C2A07302D063C
:10047800031D3F2A402ABD2A8316031387011A3019
:1004880083120313A600F730A500A50B492AA60B73
:10049800492A4E2A03300A128A11A8230A128A11FD
:1004A800073083120313A6007C30A500A50B5A2A37
:1004B800A60B5A2A000003300A128A11A8230A122E
:1004C8008A11153083120313A600C530A500A50BA9
:1004D8006B2AA60B6B2A702A03300A128A11A823EA
:1004E8000A128A1102300A128A11A8230A128A11E2
:1004F80002300A128A11A8230A128A1108300A1235
:100508008A11A8230A128A1100300A128A11A82314
:100518000A128A1106300A128A11A8230A128A11AD
:10052800083083120313A70027152708A5000430F5
:100538000310A50CFF3E031D9C2A25080F390A123B
:100548008A11A8230A128A118312031327080F3964
:100558000A128A11A8230A128A1100300A128A1173
:10056800A8230A128A1101300A128A11A8230A1232
:100578008A110800F900831203132D0884008317D9
:100588002E1C83130130F7002F080739013ECE2AAD
:100598000310F70DFF3E031DCC2A77088004790865
:1005A800F70004300310F70CFF3E031DD62A770826
:1005B8000F390A128A114D210A128A118312031364
:1005C8002D08840083172E1C83130130F7002F0C8D
:1005D800F800F80C780C0739013EF42A0310F70DDF
:1005E800FF3E031DF22A770880040D30F700F70B51
:1005F800FB2A831203132D08840083172E1C8313F0
:100608000130F7002F0CF800F80C780C0739013E80
:100618000F2B0310F70DFF3E031D0D2B7708FF3A34
:10062800800579080F390A128A114D210A128A1198
:10063800831203132D08840083172E1C83130130A3
:10064800F7002F0CF800F80C780C0739013E2E2B18
:100658000310F70DFF3E031D2C2B770880040D3087
:10066800F700F70B352B831203132D08840083172B
:100678002E1C83130130F7002F0CF800F80C780CAF
:100688000739013E492B0310F70DFF3E031D472B89
:100698007708FF3A8005080083120313A300073088
:1006A800A3052308A10002300310A10DFF3E031D7E
:1006B800582B0310210D403EA20004300310A20C59
:1006C800FF3E031D622B22080F390A128A11A82344
:1006D8000A128A11831203132308A100023003109F
:1006E800A10DFF3E031D732B0310210D403E0F3952
:1006F8000A128A11A8230A128A1183120313A40169
:100708002408200784000A128A1100240A128A1178
:100718000A128A11BE220A128A11013083120313A7
:10072800A40708302402031C9A2B9B2B842B083027
:100738000A128A11A8230A128A1100300A128A1191
:10074800A8230A128A110800F900831203132D083E
:10075800840083172E1C83130130F7002F080739F4
:10076800013EB82B0310F70DFF3E031DB62B77088B
:10077800FF3A800579080A128A114D210A128A1156
:10078800831203132D08840083172E1C8313013052
:10079800F7002F0CF800F80C780C0739013ED62B1F
:1007A8000310F70DFF3E031DD42B77088004063095
:1007B800F8003030F700F70BDF2BF80BDF2B0000C9
:1007C800831203132D08840083172E1C8313013012
:1007D800F7002F0CF800F80C780C0739013EF62BBF
:1007E8000310F70DFF3E031DF42B7708FF3A800531
:0207F8000800F7
:1008000004308A000408840A8207003400340A3461
:100810001F341F341F340E340434003400340A34BF
:100820000A34003411340E34003400344834653452
:100830006C346C346F34203457346F3472346C340D
:10084000643400344D3465346E34733461346A3446
:1008500065342034313400344D3465346E347334AF
:1008600061346A3465342034323400344D346534B4
:100870006E34733461346A34653420343334003474
:100880004234753465346E34203444346934613410
:1008900000345034413450344F34493400348312DE
:1008A0000313A101A201692C2108200784000A1268
:1008B0008A1100240A128A110A128A11BE220A120F
:1008C0008A11013083120313A1070318A20A003012
:1008D000A2072108200784000A128A1100240A12A4
:1008E0008A11003A031D752C762C542C08008B1CA1
:1008F0007A2C7B2C942C3430F100F130F000F00B8A
:100900007F2CF10B7F2C842C8B1C872C882C932C18
:10091000013083120313B20703303202031C912CFF
:10092000922C932CB2018B1073088A00720E8300F4
:10093000FE0E7E0E0900073400341A342C343E3487
:02094000FF3482
:04400E00F12FFF3F50
:00000001FF
