:100000000A128A11D92F00308A000408840A820754
:100010000034483465346C346C346F3420345734D5
:0C0020006F3472346C34643421340034CA
:1009B800073400341A342C343E34F701F801F72C8C
:1009C8007708760784000A128A1103200A128A110E
:1009D8000A128A11E1250A128A110130F707031851
:1009E800F80A0030F8077708760784000A128A1197
:1009F80003200A128A11003A031D032D042DE42C4A
:100A08000800F500831203132908840083172A1CA1
:100A180083130130F3002B080739013E152D03100D
:100A2800F30DFF3E031D132D7308FF3A800575086B
:100A38000A128A111F270A128A118312031329081E
:100A4800840083172A1C83130130F3002B0CF40055
:100A5800F40C740C0739013E332D0310F30DFF3EDF
:100A6800031D312D730880040630F4003030F30084
:100A7800F30B3C2DF40B3C2D0000831203132908C3
:100A8800840083172A1C83130130F3002B0CF40015
:100A9800F40C740C0739013E532D0310F30DFF3E7F
:100AA800031D512D7308FF3A800508002330840088
:100AB800831203132E0883138000840A2F088000F2
:100AC800840A30088000840A31088000840A3208C9
:100AD80080007630840023088000840A240880007F
:100AE800840A25088000840A26088000840A2708CA
:100AF80080000A128A1173260A128A1100300A121B
:100B08008A1105250A128A1101300A128A1105254F
:100B18000A128A1108300A128A1105250A128A1146
:100B280000300A128A1105250A128A110130F600CE
:100B38000A128A11E1240A128A110C300A128A1147
:100B480005250A128A1100300A128A1105250A128F
:100B58008A11413083120313A80028080A128A1147
:100B6800E1250A128A11043083120313A2000C3003
:100B7800A1003330A000A00BBF2DA10BBF2DA20BED
:100B8800BF2D013083120313A80751302802031C1C
:100B9800CE2DCF2DB12D0B3083120313A20026309A
:100BA800A1005D30A000A00BD72DA10BD72DA20B63
:100BB800D72D822D0A128A110028F50083120313FB
:100BC8002908840083172A1C83130130F3002B089B
:100BD8000739013EF12D0310F30DFF3E031DEF2DE4
:100BE800730880047508F30004300310F30CFF3E0B
:100BF800031DF92D73080F390A128A111F270A12CB
:100C08008A11831203132908840083172A1C83136B
:100C18000130F3002B0CF400F40C740C0739013E7E
:100C2800172E0310F30DFF3E031D152E73088004C5
:100C38000D30F300F30B1E2E8312031329088400D2
:100C480083172A1C83130130F3002B0CF400F40CD7
:100C5800740C0739013E322E0310F30DFF3E031DBD
:100C6800302E7308FF3A800575080F390A128A1169
:100C78001F270A128A118312031329088400831775
:100C88002A1C83130130F3002B0CF400F40C740CB1
:100C98000739013E512E0310F30DFF3E031D4F2E61
:100CA800730880040D30F300F30B582E83120313DE
:100CB8002908840083172A1C83130130F3002B0CA6
:100CC800F400F40C740C0739013E6C2E0310F30D7C
:100CD800FF3E031D6A2E7308FF3A8005080029307D
:100CE8008400760883138000840A77088000840AC9
:100CF80078088000840A79088000840A7A088000CD
:100D08000030831203132A06031D8C2E0530290692
:100D1800031D8F2E902E942E831603138501AF2E5C
:100D280000302A06031D9A2E06302906031D9D2E23
:100D38009E2EA22E831603138601AF2E00302A069C
:100D4800031DA82E07302906031DAB2EAC2E1E2F1F
:100D58008316031387011A30FC00F830FB00FB0BE5
:100D6800B32EFC0BB32E000003300A128A1105259E
:100D78000A128A110730FC007D30FB00FB0BC22EE3
:100D8800FC0BC22E03300A128A1105250A128A1199
:100D98001530FC00C630FB00FB0BD02EFC0BD02E10
:100DA800000003300A128A1105250A128A1102303E
:100DB8000A128A1105250A128A1102300A128A11AA
:100DC80005250A128A1108300A128A1105250A1205
:100DD8008A1100300A128A1105250A128A11063072
:100DE8000A128A1105250A128A110830FD007D159C
:100DF8007D08FB0004300310FB0CFF3E031DFF2E93
:100E08007B080F390A128A1105250A128A117D08F2
:100E18000F390A128A1105250A128A1100300A129E
:100E28008A1105250A128A1101300A128A1105252C
:100E38000A128A110800F200721C232F242F392F5E
:100E4800831203132908840083172A1C8313013093
:100E5800F0002C080739013E332F0310F00DFF3E38
:100E6800031D312F700880044E2F831203132908A5
:100E7800840083172A1C83130130F0002C080739DB
:100E8800013E482F0310F00DFF3E031D462F70084A
:100E9800FF3A8005F21C512F522F682F2908840031
:100EA80083172A1C83130130F0002C0CF100F10C7D
:100EB800710C0739013E622F0310F00DFF3E031D30
:100EC800602F700880047E2F2908840083172A1C4D
:100ED80083130130F0002C0CF100F10C710C073970
:100EE800013E782F0310F00DFF3E031D762F70088A
:100EF800FF3A8005721D812F822F952F29088400C3
:100F080083172A1C83130130F0002D080739013E8E
:100F18008F2F0310F00DFF3E031D8D2F70088004E6
:100F2800A82F2908840083172A1C83130130F00096
:100F38002D080739013EA22F0310F00DFF3E031DB7
:100F4800A02F7008FF3A8005F21DAB2FAC2FC22FDF
:100F58002908840083172A1C83130130F0002D0C04
:100F6800F100F10C710C0739013EBC2F0310F00D94
:100F7800FF3E031DBA2F70088004D82F290884006B
:100F880083172A1C83130130F0002D0CF100F10C9B
:100F9800710C0739013ED22F0310F00DFF3E031DDF
:100FA800D02F7008FF3A800508000A128A11DC2445
:100FB8000A128A11AE000A128A11DD240A128A1155
:100FC800AF000A128A11DE240A128A11B0000A122E
:100FD8008A11DF240A128A11B1000A128A11E02448
:100FE8000A128A11B200A901AA01AB01AC01AD0134
:080FF80083010A128A115A2D2F
:04400E00F12FFF3F50
:00000001FF
